:020000040800F2
:10000000E811002001010008F52D0008052A00086C
:10001000F52C0008790900088D3500080000000063
:10002000000000000000000000000000DD300008BB
:100030005F0A000800000000E92F00087131000885
:100040001B0100081B0100081B0100081B01000820
:100050001B0100081B0100081B0100081B01000810
:100060001B0100081B0100081B0100081B01000800
:100070001B0100081B0100081B0100081B010008F0
:100080001B0100081B0100081B0100081B010008E0
:100090001B0100081B0100081B0100081B010008D0
:1000A00009320008153200081B0100081B01000876
:1000B0001B0100081B0100081B0100081B010008B0
:1000C0001B0100081B0100081B0100081B010008A0
:1000D0001B010008813500081B0100081B010008F6
:1000E0001B0100081B0100081B010008DFF80CD0F1
:1000F00000F0A4FB004800472D420008E811002052
:100100000648804706480047FEE7FEE7FEE7FEE7B1
:10011000FEE7FEE7FEE7FEE7FEE7FEE7F93100084F
:10012000ED000008202A04DB203A21FA02F0002129
:10013000704721FA02F3D040C2F1200291400843F7
:100140001946704740EA01039B0703D009E008C93C
:10015000121F08C0042AFAD203E011F8013B00F88C
:10016000013B521EF9D27047D2B201E000F8012BD8
:10017000491EFBD270470022F6E710B513460A4627
:1001800004461946FFF7F0FF204610BD421C10F848
:10019000011B0029FBD1801A7047F0B480EA0102EC
:1001A000D40F4200B2EB410F02D20246084611467C
:1001B0004A0042D0C30DDDB2C1F3C752AD1A202DA3
:1001C00035DAC1F3160141F4000204B15242C5F11F
:1001D000200602FA06F12A411044B3EBD05F23D087
:1001E000C4B1012DA0EBC35009DCF0BC4FF00042BC
:1001F00002EAC352DBB200F5000000F0BDB94000D6
:1002000000F1807000EBC350A0F1807040EAD17023
:10021000490009E0490841EAC071A0EBC35000F56C
:100220000000400800EBC350F0BC00F09CB96142F4
:10023000012202EB4101001BF6E7F0BC704781F0A0
:100240000041AAE780F00040A7E72DE9FE4F81EAD0
:10025000030404F0004421F0004100944FF0000B2F
:1002600023F0004350EA01045ED052EA03045BD05D
:10027000C3F30A54C1F30A552C44A4F2F334019495
:10028000A0FB0254C1F3130141F48011C3F3130323
:1002900043F4801301FB024400FB034E840A970AD7
:1002A00044EA815447EA8357A4FB076802958D0A04
:1002B00005FB07854FEA932C04FB0C542705029D90
:1002C0004FEA065847EA1637B5EB08056EEB070C00
:1002D000870E920E47EA811742EA8312A7FB0201BA
:1002E000B6EB0B0164EB00042B0D43EA0C335E18F4
:1002F00044EB1C50DA465146E7FB0201C5F31304F8
:100300004FEA0B3343EA14534FEA0432019C43EAA9
:100310000603A4F10C040294009CCDE900B400F0A3
:1003200068F903B0BDE8F08F00200146F9E72DE938
:10033000F04D81EA030404F0004B21F0004514461F
:100340004FF0000A23F0004150EA050220D054EAA1
:1003500001021DD0C5F30A570246C5F31303C1F3CA
:100360001300C1F30A5640F4801543F48013A7EB41
:100370000608101BD64608F2FD3873EB050002D3C1
:1003800008F1010801E092185B41B8F1000F03DAAF
:1003900000200146BDE8F08D00204FF48011064694
:1003A00084460EE0171B73EB050705D3121B63EBA6
:1003B000050306434CEA010C49084FEA3000921845
:1003C0005B4150EA0107EDD152EA030012D082EA04
:1003D000040083EA0501084305D0101BAB4106D297
:1003E0000122002306E000224FF0004302E06FF0FC
:1003F000010253101AEB06004CEB085110EB0A00F7
:1004000041EB0B01BDE8F04D00F0E4B80EB540F251
:10041000334102910021CDE900110A460B4600F05C
:10042000E8F803B000BD70B5C1F30A5201F0004511
:100430000024C1F3130140F2FF3341F480119A42CA
:1004400001DA002070BD40F233439A42A2F23342F7
:1004500003DC5242FFF766FE00E090402C43F1D0EF
:10046000404270BD00F0004230F000400AD0C10DA3
:1004700001F56071C0F3160042EA0151C20840075D
:100480001143704700200146704701F0004330B42B
:1004900021F0004150EA010206D00A0DA2F5607277
:1004A000C1F31301002A02DC30BC00207047440F66
:1004B00044EAC104C100E01830BC00EBC25000F0B7
:1004C00052B80000002801DBC0F10040002901DB28
:1004D000C1F100418142704730B50B460146002012
:1004E0002022012409E021FA02F59D4205D303FAF6
:1004F00002F5491B04FA02F52844151EA2F1010277
:10050000F1DC30BD2DE9F05F0546002092469B46A8
:1005100088460646814640241BE028464146474619
:100520002246FFF7FFFD53465A46C01A914110D3A9
:1005300011461846224600F093F92D1A67EB010880
:100540004F4622460120002100F08AF917EB0009EE
:100550004E41201EA4F10104DFDC484631462A4604
:100560004346BDE8F09F0029A8BF7047401C4900E2
:1005700008BF20F00100704710B4B0FA80FC00FA08
:100580000CF050EA010404BF10BC704749B1CCF133
:10059000200421FA04F411FA0CF118BF01212143BF
:1005A0000843A3EB0C01CB1D4FEA00614FEA10207A
:1005B00042BF002010BC704700EBC350104400291C
:1005C000A4BF10BC7047401C490008BF20F00100C8
:1005D00010BC704710B5141E73F1000408DA401CFB
:1005E00041F1000192185B411A4301D120F0010052
:1005F00010BD2DE9F04D92469B4611B1B1FA81F242
:1006000002E0B0FA80F22032904600F029F9044668
:100610000F4640EA0A0041EA0B0153465A46084396
:1006200013D0114653EA010019D0C8F140025046D8
:10063000FFF778FD05460E4650465946424600F003
:100640000FF9084305D0012004E020463946BDE8F3
:10065000F08D0020054346EAE0762C4337430A98A4
:100660006305E40AA0EB08000022FD0A44EA4754AF
:100670000A3002D500200146E9E701051019694159
:10068000DDE9084500196941BDE8F04DA2E72DE913
:10069000FE4F804681EA0300C00F0C46009021F017
:1006A000004123F00045B8EB0200A94105D24046C5
:1006B000214690461C460B46024623F0004010435C
:1006C00047D0270DC7F30A00C3F30A510290401A1E
:1006D000019040286BDAC3F3130040F4801B0098AC
:1006E000924620B10023D2EB030A63EB0B0B019877
:1006F0005946C0F14002504600F0B2F806460D4699
:1007000050465946019A00F0BAF810EB08006141D2
:10071000002487EA115284EAE7731A4340D0009A12
:1007200062B3019A012A4FEA075215DC001B61EB04
:1007300002014FF0004202EA0752CDE90042001CDC
:1007400041F5801132462B46FFF753FF03B0BDE859
:10075000F08F40462146F9E7001B61EB0201001CC7
:1007600041F5801300185B412018A2F5001747EBF4
:10077000030140EAD570B6196D4111E06D084FEAEA
:10078000360645EAC0754FEA0752001B61EB0201CD
:10079000001C41F5801149084FEA30000019514111
:1007A00032462B4603B0BDE8F04FFFF713BF009869
:1007B000012240000023D0EB020263EBE0730098BB
:1007C00021464FEAE074B8EB000061EB0401E9E771
:1007D00083F000435BE781F0004158E7C1F30A5220
:1007E000C1F3130140F2FF3341F480119A4202DA5F
:1007F00000200146704740F233439A42A2F233424E
:1008000002DC5242FFF78EBC00F02AB830B5041E5D
:1008100071F1000404DB4FF00044404264EB01013D
:10082000141E73F1000405DB1C464FF000435242D6
:1008300063EB0403994208BF904230BD064C074D5C
:1008400006E0E06840F0010394E8070098471034A0
:10085000AC42F6D3FFF74EFCCC5C0008EC5C000821
:10086000202A04DB203A00FA02F100207047914070
:10087000C2F1200320FA03F3194390407047202A65
:1008800006DBCB17203A41FA02F043EAE07306E0B8
:1008900041FA02F3D040C2F12002914008431946C8
:1008A0007047000070B5044600688168C943C907F5
:1008B00017D1816821F00101816000F011FD05462A
:1008C0000AE000BF00F00CFD401B022804D920689C
:1008D0008068C043C00706D020688068C043C00756
:1008E000F0D0002070BDA06A40F01000A062E06A65
:1008F00040F00100E062012070BD0000F8B5002664
:100900000446009600688168C943C9072DD08168F4
:1009100041F001018160164816490068B0FBF1F012
:1009200000E0401E00900028FBD100F0D9FC0546F5
:1009300016E000BF00F0D4FC401B022810D920684C
:100940008068C043C0070BD0A06A40F01000A062CE
:10095000E06A40F00100E06284F824600120F8BD04
:1009600020688068C043C007E4D10020F8BD0000C3
:100970000C00002040420F00FEE700000B48016819
:1009800004E00A4800684068084A106007480068A8
:1009900040680028F5D105480068416003480068B8
:1009A0008860024800680068704700001800002056
:1009B0002DE9F04105460E46174698461C2003F0E7
:1009C000F5FC0446257366732761C4F81480084853
:1009D000006860600020A060054800680068206032
:1009E000A4610348006884602046BDE8F0810000EF
:1009F000180000202DE9F04105460E46174698469E
:100A00001C2003F0D3FC0446257366732761C4F8E9
:100A1000148000206060A060A46104480068206029
:100A20000248006884612046BDE8F081180000207B
:100A30002DE9F04105460E46174698461C2003F066
:100A4000B5FC0446257366732761C4F81480002042
:100A50006060A060A46124602046BDE8F08170471A
:100A600072B600BFFEE70000F8B500250446009509
:100A700090F8240001280BD0012084F8240020469F
:100A8000FFF710FF2046FFF739FF060002D050E0C5
:100A90000220F8BDA06A20F4885040F00200A06255
:100AA000022000F0BBFC25490968B1FBF0F04000D2
:100AB00000E0401E00900028FBD12068816841F0D2
:100AC0000801816000F00CFC074608E000F008FC1B
:100AD000C01B0A2803D920688068000715D4206845
:100AE00080680007F2D42068816841F004018160C9
:100AF00000F0F6FB074612E000F0F2FBC01B0A28EC
:100B00000DD920688068400709D5A06A20F002004E
:100B100040F01000A06284F824500120F8BD206845
:100B200080684007E8D4A06A20F0020040F001008D
:100B3000A06284F824503046F8BD00000C0000206C
:100B4000F8B50024009490F824202546012A12D0FC
:100B5000012280F824204A681F23072A0DD2066844
:100B6000776B521E02EB820293409F430B689340C7
:100B70001F43776319E00220F8BD06680D2A0AD2E8
:100B8000376BD21F02EB820293409F430B68934066
:100B90001F43376309E0F76A0D3A02EB8202934084
:100BA0009F430B6893401F43F7620A680723066858
:100BB0000A2A0AD3F7680A3A02EB420293409F439B
:100BC0008B6893401F43F76008E0376902EB4202ED
:100BD00093409F438B6893401F4337610A68102AF4
:100BE00001D0112A20D1124B02689A4217D1936882
:100BF0001B0219D4936843F4000393600968102919
:100C000012D10C490C4A0968B1FBF2F101EB8101E8
:100C1000490000E0491E00910029FBD104E0816AEF
:100C200041F020018162012480F824502046F8BD63
:100C3000002401400C00002040420F000068C06CFE
:100C4000704700002DE9F0414FF0000704003D46D9
:100C50007ED0A06A002628B9E66284F82460204687
:100C600000F07EF82046FFF71DFEA16AC90600D4F9
:100C700020B1A06A40F01000A06269E0A16A21F4EE
:100C8000885141F00201A1626268E169237B0A4355
:100C900047EA43010A43A1684FF48077B94209D07B
:100CA000012907D05FF0000194F814C0BCF1010FD6
:100CB00002D00AE03946F7E7F3B1A36A43F0200314
:100CC000A362E36A43F00103E3622368D3F804C03C
:100CD0002CF4694C4CEA010CC3F804C021688B6801
:100CE000DFF870C003EA0C0313438B60A168B942BC
:100CF0000BD0012909D00CE0DFF85CC0A3690CEB34
:100D000043330B4343F40061DFE7218A0D05A5F56A
:100D100080152168CB6A23F470032B43CB622168D2
:100D200089680E4B1940914208D1E662A16A21F010
:100D3000020141F00101A162BDE8F081A06A20F04A
:100D4000020040F01000A062E06A40F00100E062A2
:100D50000120F1E7FDF7E1FF00E0FFFFFE0E1FFFBE
:100D600000B585B0002100910191029103910068C6
:100D70000E49884218D10E48816941F400718161A1
:100D8000816901F400710491816941F0040181617C
:100D90008069694600F004000490732000900320ED
:100DA0000190044800F0A2F905B000BD0024014004
:100DB00000100240000801402DE9F84300270D46CD
:100DC0000446009700F08CFA804620688168C905C7
:100DD00008D5A06A40F02000A06284F824700120A9
:100DE000BDE8F8834168C90503D4C06A10F4700FE8
:100DF0002AD0022000F012FB3B490968B1FBF0F653
:100E00002068036939490B424FEA61014FEAA11298
:100E10001FD1C3684FEA611C13EA0C0F19D1036993
:100E20000B4225D1C068104222D1142023E0681C57
:100E30000AD02DB100F054FAA0EB0800A84203D963
:100E400020680068800725D5206800688007EED5F7
:100E50002DE003690B4202D1C168114206D002693C
:100E600023490A4206D1C068084203D1542002E057
:100E7000292000E0FC204643009816E0681C11D0B1
:100E80002DB100F02DFAA0EB0800A8420AD9009875
:100E9000B04207D2A06A40F00400A06284F8247037
:100EA00003209DE70098401C0090B042E6D32168E3
:100EB0006FF012000860A06A40F40070A062206821
:100EC0008068C0F3424007280CD1207B50B9A06A4B
:100ED00020F48070A062A06AC00403D4A06A40F02D
:100EE0000100A06200207BE70C000020244992242E
:100EF0004992240070B5044690F8240001280DD0D2
:100F0000012084F824002046FFF7F8FC02004FF08F
:100F1000000005D084F82400104670BD022070BD8A
:100F2000A16A40F20123994341F48071A1621F4DEF
:100F300023681F49AB4218D10E6816F4702F14D0E5
:100F4000A66A46F48016A6620E68760505D5A66ADE
:100F500026F4005646F48056A662A66AF6040AD520
:100F6000E66A26F00606E66206E0A66A26F4801621
:100F7000A6625E68E9E7E06284F824006FF0020090
:100F8000186020688368C3F34243072B05D1A84249
:100F900008D1096811F4702F04D0816841F48011E0
:100FA0008160B9E7816841F4A001F9E700280140B8
:100FB0000424014010B5044690F82400012807D00D
:100FC000012084F824002046FFF76CFC10B107E0F4
:100FD000022010BDA16A21F4885141F00101A162F3
:100FE000002184F8241010BD10B590F821100022C3
:100FF000022905D00421816380F82020012010BD42
:1010000001680B6823F00E030B6001680B6823F086
:1010100001030B6090F84030C46B012101FA03F327
:10102000636080F8211080F82020104610BD000079
:1010300010B590F821100024022903D00421816307
:1010400001243DE001680A6822F00E020A6001688E
:101050000A6822F001020A601A4A0168914201D12D
:10106000012121E0174A1432914201D110211BE0E5
:10107000144A2832914201D1891515E0114A3C32B7
:10108000914201D189140FE00E4A5032914202D1AF
:101090004FF4803108E00B4A6432914202D14FF4A0
:1010A000801101E04FF08071064A083A5160012139
:1010B00080F82110002180F82010416B01B1884791
:1010C000204610BD0800024070B5044600F008F943
:1010D0000546601C02D004480078044400F000F982
:1010E000401BA042FAD370BD000000202DE9F84F4C
:1010F000DFF8B8910024A9F1040B23460F2709F16A
:10110000040AABF1040EC9E00125A5402A40AA4219
:101110007DD1674ED1F804C0ACEB0608B44532D09F
:1011200014DCBCF1030F3AD009DCBCF1000F2AD06B
:10113000BCF1010F1CD0BCF1020F31D11DE0BCF19C
:10114000110F17D0BCF1120F2AD119E0B8F5881F82
:1011500019D006DCB8F5803F15D0B8F5801F1FD137
:1011600011E0B8F5001F0ED0B8F5041F18D10AE041
:10117000CB6815E0CB681B1D12E0CB6808330FE08D
:10118000CB680C330CE08B682BB1012B4FF00803BC
:1011900003D0456104E0042302E0056100E0002380
:1011A000FF2A01D8064601E000F104064FEA840553
:1011B00001D9A5F12005D6F8008007FA05FC28EA38
:1011C0000C0803FA05F548EA0508C6F800804D68E2
:1011D000ED0062D5374DAE6946F00106AE61AD69EE
:1011E00024F0030605F001050095334D06EB050CD0
:1011F000DCF80850A607360F07FA06F825EA0805B6
:10120000DFF8B880404503D14FF0000817E044E014
:10121000DFF8AC80404502D14FF001080FE0DFF865
:10122000A480404502D14FF0020808E0DFF8988022
:10123000404502D14FF0030801E04FF0040808FADE
:1012400006F848EA0508CCF808804D68D9F800602F
:10125000ED024D4601D5164300E096432E604D68E1
:10126000DAF80060AD02554601D5164300E096431A
:101270002E604D68DBF80060AD035D4601D5164376
:1012800000E096432E604D68DEF80060ED03754681
:1012900001D5164300E096432E60641C0D682A4673
:1012A000E5407FF431AFBDE8F88F0000080401404D
:1012B0000000111000100240000001400008014031
:1012C000000C0140001001400014014080680840FB
:1012D00000D0012070470AB1016170470904FBE7A3
:1012E00001488068704700000000002002488168C3
:1012F000027811448160704700000020074810B553
:10130000016841F010010160032000F075F80F2022
:1013100000F006F800F024F8002010BD0020024084
:1013200070B50D4D04464FF47A712878B1FBF0F09A
:101330000A490968B1FBF0F000F0EDFC48B9102C47
:1013400007D200222146501E00F036F800206C60C3
:1013500070BD012070BD0000000000200C000020C6
:101360000C4808B5816941F001018161816901F092
:1013700001010091C16941F08051C161C06900F073
:10138000805000900448416821F0E06141F0007114
:10139000416008BD0010024000000140002809DB48
:1013A00000F01F02012191404009800000F1E0207F
:1013B000C0F8001170470000F0B40E4B1B680C46DB
:1013C000C3F30223C3F10705042D00D90425191D19
:1013D000072901D2002300E0DB1E012606FA05F1F1
:1013E000491E214099409E40761E16403143F0BC74
:1013F00002F0F4B80CED00E0064900F007020868BE
:101400004FF6FF03184040EA0220034A10430860E9
:10141000704700000CED00E00000FA0510B5014631
:101420000020234C012922D0022939D010291DD1B6
:1014300061682268D20119D51E48C1F38342C903ED
:10144000805C0AD561681B4AC1F34041921E515C21
:10145000194AB2FBF1F1484301E018494843616879
:10146000490203D440000321B0FBF1F010BD226A11
:10147000C2F30121012903D1920701D5C80310BD90
:10148000022905D1626A920702D549F6404010BD93
:101490000329FCD121688903F9D54FF2244010BDFE
:1014A00000F02AF96168C1F38131491C4900DBE78A
:1014B000001002406E54000800127A0000093D003E
:1014C0002DE9F84305460078354CC00754D0E06953
:1014D0000026C00008D4E06940F08050E061E06977
:1014E000012600F0805000902E480168C90512D4F2
:1014F0000168804641F480710160FFF7F1FE074604
:1015000005E000BFFFF7ECFEC01B642823D8D8F825
:101510000000C005F6D5206A10F4407021D0A988DB
:1015200001F4407181421CD0206A1F49012220F43D
:1015300040700A6000220A602062C00711D0FFF7E5
:10154000CFFE074641F2883808E000BFFFF7C8FE2B
:10155000C11B414502D90320BDE8F883206A8007FA
:10156000F4D5206A696820F44070084320621EB1F7
:10157000E06920F08050E0612878800705D5606838
:10158000A96820F44040084360602878C00605D56B
:101590006068E96820F48000084360600020DBE7B1
:1015A0000010024000700040400442422DE9F04724
:1015B0000F46050061D0434E306800F00700B84286
:1015C00009D2306820F0070038433060306800F0FE
:1015D0000700B84251D128683B4C810712D540071B
:1015E00003D5606840F4E06060602878000703D5A8
:1015F000606840F4605060606068A96820F0F000A6
:10160000084360602878C00728D06868012810D097
:101610002168022810D0890700292EDA616821F09C
:10162000030101436160FFF75BFE804641F28839A8
:101630000DE021688903EFE78901EDE7FFF750FE30
:10164000A0EB0801494502D90320BDE8F087606896
:10165000696800F00C00B0EB810FEFD1306800F04A
:101660000700B8420BD9306820F0070038433060DB
:10167000306800F00700B84201D00120E5E7287883
:10168000400705D56068E96820F4E06008436060C1
:101690002878000706D56068296920F4605040EA80
:1016A000C100606000F038F86168084AC1F30311B6
:1016B000515CC8400649086006480068FFF730FEE4
:1016C0000020C2E700200240001002407E540008C3
:1016D0000C00002004000020044805490068496807
:1016E000044AC1F30221515CC84070470C0000203D
:1016F000001002408E5400080448054900684968FB
:10170000044AC1F3C221515CC84070470C0000205C
:10171000001002408E5400080E4A51680E4801F035
:101720000C03042B11D0082B0FD10C48C1F38343B9
:10173000C903C05C0AD55168084AC1F34041921EF2
:10174000515C054A5043B0FBF1F0704704494843EF
:10175000704700000010024000127A005C5400083C
:1017600000093D002DE9F84F040070D02078C04DED
:10177000C00749D06868C0F38100012807D06868B5
:10178000C0F38100022809D16868C00306D5286823
:10179000800339D560680028E7D035E06068B0F58F
:1017A000803F0BD010B1B0F5A02F11D0286820F4E5
:1017B00080302860286820F4802002E0286840F407
:1017C00080302860606890B1FFF78AFD06460AE025
:1017D000286840F480202860F0E700BFFFF780FD14
:1017E000801B642873D828688003F7D50CE0FFF7C6
:1017F00077FD064605E000BFFFF772FD801B6428F9
:10180000F0D828688003F7D420789A4E80074FF0EC
:1018100001094FF0000839D5686810F00C0F07D0A7
:101820006868C0F38100022809D16868C00306D443
:101830002868800714D52069012808D110E02069A4
:10184000B0B1C6F80090FFF74BFD074605E00AE18E
:10185000FFF746FDC01B0228C4D828688007F7D5CB
:101860002868616920F0F80040EAC10028600DE0B6
:10187000C6F80080FFF734FD074604E0FFF730FDAF
:10188000C01B022823D828688007F7D420780007D7
:101890002CD57948A169D9B1C0F80090FFF720FD97
:1018A000074604E0FFF71CFDC01B02280FD8686A3A
:1018B0008007F7D571484FF4FA510068B0FBF1F09A
:1018C000009000BF0098411E0091FAD20EE080E027
:1018D000C0F80080FFF704FD074604E0FFF700FDB5
:1018E000C01B022875D8686A8007F7D420784007A3
:1018F00060D5E8690027C00008D4E86940F080504E
:10190000E861E869012700F0805000905C480168B8
:10191000C90513D40168834641F480710160FFF763
:10192000DFFC824606E000BFFFF7DAFCA0EB0A000E
:1019300064284ED8DBF80000C005F5D5E068012822
:101940000AD008B1052813D0286A20F001002862C7
:10195000286A20F0040002E0286A40F001002862B2
:10196000E06841F2883B98B1FFF7BAFC82460BE091
:10197000286A40F004002862EEE700BFFFF7B0FCE1
:10198000A0EB0A0159455AD8286A8007F6D50CE021
:10199000FFF7A6FC824605E0FFF7A2FCA0EB0A01D8
:1019A00059454CD8286A8007F6D41FB1E86920F061
:1019B0008050E861E06988B36968C1F38101022958
:1019C00044D00228C6F8608004D0FFF789FC0446A2
:1019D00038E034E0FFF784FC074604E0FFF780FCC2
:1019E000C01B02282BD828688001F7D4206AB0F5E4
:1019F000803F05D16868A16820F400300843686022
:101A0000D4E908010843696821F474110843686047
:101A1000C6F86090FFF764FC044606E025E000BFCE
:101A2000FFF75EFC001B022809D828688001F7D563
:101A30001BE000BFFFF754FC001B022802D9032063
:101A4000BDE8F88F28688001F4D40EE00128F7D0B3
:101A50006868226A00F48031914204D1616A00F41E
:101A60007010884201D00120EAE70020E8E700007A
:101A70000010024000004242800442420C0000205C
:101A80000070004070B5040009D0606A002540B1C4
:101A900025616561A56294F8510040B10CE0012018
:101AA00070BD6068B0F5827FF4D0E561F2E784F83C
:101AB0005050204600F040F8022084F85100206881
:101AC000016821F040010160A088218900F4827042
:101AD00001F404410843A18901F400610843217C19
:101AE00001F002010843217D01F001010843218B2F
:101AF00001F400710843217F01F03801084394F894
:101B0000201001F080010843218D01F400510843A9
:101B100021680860A069042101EA1040216848603A
:101B20002068C16921F40061C1616565012084F804
:101B30005100002070BD000000B585B0002100916B
:101B400001910291039100681349884221D1134801
:101B5000816941F480518161816901F4805104916E
:101B6000816941F0080181618069694600F00800DF
:101B70000490282000900220019003200390084840
:101B8000FFF7B4FA0748416841F0E06141F0010114
:101B9000416005B000BD000000300140001002406F
:101BA000000C0140000001402DE9F84F044690F878
:101BB00050000026984615468A4601280CD0012779
:101BC00084F85070FFF78CFB814694F85100B346BF
:101BD000012804D002269AE00220BDE8F88FBAF16D
:101BE000000F6FD0002D6DD0032084F85100C4F891
:101BF00054B0C4F830A0A586E586C4F838B0A4F87F
:101C00003CB0A4F83EB0C4F844B0C4F840B0A068FA
:101C1000B0F5004F09D12068016821F04001016052
:101C20002068016841F4804101602068016849062C
:101C300003D4016841F040010160E068B0F5006F35
:101C4000606803D058B3012D29D049E008B1012DB7
:101C50001FD1206B21680088C86006E02068816879
:101C6000890709D5216B0988C160206B801C20631E
:101C7000E08E401EE0860CE0FFF732FBA0EB09018E
:101C8000414503D3B8F1FF3F03D006E0B8F1000FA0
:101C900003D0E08E0028E1D125E0032635E0206B5B
:101CA00021680078087306E02068816889070AD5F2
:101CB000216B09780173206B401C2063E08E401E6D
:101CC000E0860DE01FE0FFF70BFBA0EB09014145AB
:101CD00003D3B8F1FF3F03D0DFE7B8F1000FDCD04A
:101CE000E08E0028E0D14A464146204601F08AF9BC
:101CF00008B120206065A06818B92068C1688068B4
:101D00000090606D08B1012601E084F8517084F8FC
:101D100050B0304661E710B5401EB0F1807F01D36E
:101D2000012010BD4FF0E02460610F21601701F029
:101D300055FC0020A06107202061002010BD7047E5
:101D40007047000070B590F83C20012A26D001248D
:101D500080F83C40022280F83D2003685A689D6864
:101D600022F070060A6832435A600D4B02689A42AC
:101D700008D0B2F1804F05D00A4B9A4202D00A4BEC
:101D80009A4204D1496825F080031943916080F894
:101D90003D40002180F83C10084670BD022070BD17
:101DA000002C0140000400400008004010B5040071
:101DB00003D094F83D0010B107E0012010BD0020D1
:101DC00084F83C00204600F01FF8022084F83D0013
:101DD000211D206801F024FA012084F8460084F8CF
:101DE0003E0084F83F0084F8400084F8410084F805
:101DF000420084F8430084F8440084F8450084F8E5
:101E00003D00002010BD000008B500680F49884261
:101E10001AD10F48816941F4006181618069002213
:101E200000F40060009011461820FFF7C5FA182052
:101E3000FFF7B4FA002211461920FFF7BDFABDE8FA
:101E400008401920FFF7AABA08BD0000002C014085
:101E50000010024090F83D10012901D00120704788
:101E6000022180F83D100168CA6842F00102CA6090
:101E700000680B49884208D0B0F1804F05D009496D
:101E8000884202D00849884204D1816801F00701E4
:101E9000062903D0016841F001010160002070476C
:101EA000002C0140000400400008004070B50446CA
:101EB00090F83C000025012817D0012684F83C60EA
:101EC000022084F83D002068826822F0770222F424
:101ED0007F4282600868502838D00DDC20284FD01F
:101EE00005DC90B3102811D14AE0022070BD3028E3
:101EF00046D040280AD13BE060282FD070280DD072
:101F0000B0F5805F03D0B0F5005F12D0012584F8F2
:101F10003D60002084F83C00284670BDCB68D1E9C4
:101F20000121206801F0B2F92068816841F0770151
:101F300009E0CB68D1E90121206801F0A7F9206808
:101F4000816841F480418160E1E719E0CA6849682D
:101F5000206801F0ADF95021206806E0CA684968A0
:101F6000206801F0B6F96021206801F099F9CEE708
:101F7000CA684968206801F09BF940212068F4E7AD
:101F8000226801461046F0E7704770B504460068C5
:101F900001694FF00005C943890715D4C168C943D9
:101FA000890711D4E91E016101202077206880692A
:101FB0008007204602D0FFF7E7FF04E000F098F822
:101FC000204600F096F8257720680169C943490743
:101FD00017D4C168C943490713D46FF004010161E4
:101FE000022020772068806910F4407F204602D0CC
:101FF000FFF7CAFF04E000F07BF8204600F079F814
:10200000257720680169C943090716D4C168C94307
:10201000090712D46FF008010161042020772068BD
:10202000C0698007204602D0FFF7AEFF04E000F051
:102030005FF8204600F05DF8257720680169C94304
:10204000C90617D4C168C943C90613D46FF010017B
:102050000161082020772068C06910F4407F204685
:1020600002D0FFF791FF04E000F042F8204600F0B4
:1020700040F8257720680169C943C90708D1C168BC
:10208000C943C90704D1891E0161204600F032F816
:1020900020680169C943090609D4C168C943090612
:1020A00005D46FF0800101612046FFF748FE2068EB
:1020B0000169C943490609D4C168C943490605D421
:1020C0006FF040010161204600F068F92068016965
:1020D000C94389060BD4C168C943890607D46FF088
:1020E000200101612046BDE87040FFF729BE70BDA8
:1020F0007047704770B50546A1492868884271D17C
:102100008021A048FFF7E2F89F4908704FF4805102
:102110009E48FFF7DBF89C4908754FF400519B4837
:10212000FFF7D4F8984981F828004FF48041974888
:10213000FFF7CCF8944981F83C004FF400519448E3
:10214000FFF7C4F8904981F850004FF400418F48E0
:10215000FFF7BCF88C4981F864000020E1E000EB57
:102160008001894A02EB8101497821B1012923D0FC
:1021700002296FD137E000EB8001834A12F8211069
:1021800091B9012100EB80027F4B03EB8202517079
:10219000002100EB800203EB8202D16000EB8002A1
:1021A00003EB8202116106E0002100EB8002764B16
:1021B00003EB8202917082E000EB8001724A12F818
:1021C000211039B9022100EB80026F4B03EB820230
:1021D000517006E0002100EB80026B4B03EB8202A2
:1021E00051706CE0CBE000EB8001674A12F82110DF
:1021F000012930D100EB800102EB8101C968462939
:1022000029D200EB800102EB8101097969B9012132
:1022100000EB80025C4B03EB82021171002100EBAA
:10222000800203EB820291600CE0022100EB80024D
:10223000554B03EB82029170002100EB800203EB0F
:1022400082021171002100EB80024F4B03EB8202EE
:10225000517032E032E000EB80014B4A12F821105D
:1022600001290ED100EB800102EB8101C9684629EA
:1022700007D3002100EB8002434B03EB8202517035
:102280001BE000EB8001404A02EB8101C96846294E
:1022900006D9032100EB80023B4B03EB82029170D5
:1022A00000EB8001384A02EB8101C968491C00EB50
:1022B0008002354B03EB8202D16000E000BF00BF1B
:1022C00000EB8001304A02EB8101097901291FD11D
:1022D00000EB800102EB81018968491C00EB800260
:1022E000294B03EB8202916000EB80011A4602EB5E
:1022F0008101896823290BD9012100EB800203EBBE
:1023000082029170002100EB800203EB82021171C6
:1023100000EB80011C4A02EB810189781D4A1154AF
:10232000401C0628FFF61BAF002414E004EB8400D9
:10233000154901EB8000C07804EB8401124A02EBDE
:1023400081018978884205D006221249124802F09C
:10235000AEF802E0641C062CE8DB00BF00200CE0B5
:1023600000EB8001084A02EB8101897800EB8002D2
:10237000054B03EB8202D170401C0628F0DB70BDD8
:10238000002C014000080140B4020020000C014074
:1023900000100140100000202C03002070477047FF
:1023A00070470000F8B5016804460868CA684B69C0
:1023B00010F00F0F4FF0000559D003F0010602F4A2
:1023C0009077374365D0C10705D0D10503D5616C3F
:1023D00041F001016164410705D5D90703D0616C63
:1023E00041F002016164810705D5D90703D0616C12
:1023F00041F004016164010707D502F02001314377
:1024000003D0616C41F008016164616C00293AD02D
:10241000800604D5900602D5204600F09BFF206878
:102420004069616CC0F38010090700D460B3204696
:1024300000F069FF20684069400621D5206814300B
:1024400050E8001F21F0400140E80012002AF5D1B9
:10245000E06BA8B16D494163E06BFEF7E9FD002830
:1024600011D0E06B416B01B0BDE8F0400847830636
:102470000FD593060DD52046BDE8F84000F06ABFA1
:102480002046FFF78DFFF8BD2046FFF789FF656402
:10249000F8BD266B2023012E7CD1C6067AD5D60640
:1024A00078D508684868009048694FF002064006F1
:1024B00040D5E16B086840680004000CE8D0A28DAC
:1024C0008242E5D9E085886920282DD020680C302B
:1024D00050E8001F21F4807140E80012002AF5D175
:1024E0002068143050E8001F21F0010140E800127C
:1024F000002AF5D12068143050E8001F21F0400177
:1025000040E80012002AF5D184F8423025632068A3
:102510000C3050E8001F21F0100140E80012002AA2
:10252000F5D1E06BFEF760FD6663A08DE18D401A8A
:1025300081B22AE0A08DE18D401A81B2E08D0028A1
:10254000A6D00029A4D022680C3252E8000F20F453
:10255000907042E80007002FF5D12068143050E851
:10256000002F22F0010240E80027002FF5D184F867
:102570004230256320680C3050E8002F22F0100212
:1025800040E80023002BF5D166632046FFF707FFE4
:10259000F8BDFFE705062BD5150629D594F84100AF
:1025A0002128F5D1A068B0F5805F01D12069B0B1D4
:1025B000206A411C2162216800784860E08C401E3E
:1025C0000004000CE084E3D12068C16821F08001A0
:1025D000C1602068C16841F04001C160D8E7206A4D
:1025E0000088C0F308004860206A801C2062E5E78C
:1025F0004006CDD55006CBD5CA68204622F0400211
:10260000CA6084F8413000F0FCF9C1E7F7320008F5
:1026100070B5040004D094F84100002510B106E024
:10262000012070BD84F84050204600F023F824209B
:1026300084F841002068C16821F40051C16020463F
:1026400000F0EAFE2068016921F4904101612068F0
:10265000416921F02A0141612068C16841F40051BB
:10266000C1606564202084F8410084F842006563FD
:10267000002070BDF0B585B0002400940194029450
:1026800003940368384F022038490322384D46022C
:10269000BB4228D18B6943F480438B618B6903F47F
:1026A000804304938B6943F004038B61896903922F
:1026B00001F0040104910102CDE9001069462846A9
:1026C000FEF714FDCDE90064694628460294FEF742
:1026D0000DFD002211462520FEF76EFE2520FEF797
:1026E0005DFE05B0F0BD234FBB4219D1CB6943F469
:1026F0000033CB61CB6903F4003304938B6943F05F
:1027000004038B618969039201F00401049104219F
:10271000CDE9001069462846FEF7E8FC08201BE0DA
:10272000154DAB42DDD1CB6943F48023CB61CB693E
:1027300003F4802304938B6943F008038B61896958
:102740000E4D01F00801CDE90321CDE90060694695
:102750002846FEF7CBFCE814CDE90004694628467C
:102760000294FEF7C3FCBCE70038014000100240B1
:10277000000801400044004000480040000C0140B7
:1027800090F84230202B01D00220704721B11AB1BD
:102790000023036300F09CBE0120704710B504467F
:1027A0006649206888427DD165480078052821D295
:1027B000DFE800F00321396289006248007838B907
:1027C00061480078412815D101205E49087011E068
:1027D0005D48007843280AD101205949087000203B
:1027E00058490870594908705949087002E000209A
:1027F000544908709AE05448007856490870544883
:102800000078514909780844514908704F480078C8
:10281000097808444D490870022049490870002091
:102820004849087082E048480078102805DD0020FB
:10283000444908704249087078E0434800784649A6
:1028400008704348007840490978084440490870B6
:102850003E480078097808443C4908703E480078B2
:1028600018B904203649087002E003203449087082
:1028700000203449087059E0334800783749314A1C
:1028800012788854324800782F4909780844304932
:1028900008702E480078097808442C4908702948A7
:1028A000007800E048E0401C26490870084600789F
:1028B00029490978884205DB042021490870002055
:1028C0002049087032E01F48007878B92048007825
:1028D0001D490978884205D000201A490870184916
:1028E000087023E00120174908701EE0174800789F
:1028F00015490978884213D104200BE0021FC2F366
:102900008701042904DA154B9A58154B43F8212006
:10291000011D88B2104909788842EFDD01F07CFD85
:102920000020084908700649087000BF00BF012256
:1029300005490C48FFF724FF10BD00000038014096
:10294000FE000020FF000020FD0000200301002009
:10295000020100200001002001010020D407002016
:10296000C4070020DC0100202DE9F843044690F85C
:1029700041001F4616460D46202802D00220BDE821
:10298000F8837DB176B100206064212084F8410095
:10299000FEF7A6FCA6848046E684A068B0F5805FBA
:1029A00002D003E00120EAE7206910B12E4600259D
:1029B0000EE000260CE08021204600F0A4FDA0B926
:1029C000AEB116F8010B21684860E08C401EE0842F
:1029D000E08C43464FF0000200970028EBD14FF007
:1029E0004001204600F08FFD30B10320C7E735F8E5
:1029F000020BC0F30800E6E7202084F84100002025
:102A0000BDE77047FEE7000010B501220249034808
:102A1000FFF7B6FE10BD0000FD000020DC01002025
:102A2000FEB50025264800950195244902950160D0
:102A300089158160057301240475052606614FF42C
:102A400060214560C0E90641FEF7FCF808B1FEF7D9
:102A500007F8CDE900540625694619480295FEF7A6
:102A60006FF808B1FDF7FCFF0220CDE90040694690
:102A70001348FEF765F808B1FDF7F2FF0320CDE932
:102A8000005069460E48FEF75BF808B1FDF7E8FF15
:102A90000424CDE9006469460948FEF751F808B1FD
:102AA000FDF7DEFFCDE9004669460548FEF748F828
:102AB000002801D0FDF7D4FFFEBD00000024014036
:102AC0000C010020F0B585B000242E48009401943C
:102AD00002940394816941F010018161816901F0E0
:102AE00010010491816941F020018161816901F047
:102AF00020010491816941F004018161816901F043
:102B000004010491816941F00801816180691E4FCF
:102B100000F008000490002203213846FEF7DBFB9A
:102B2000012204213846FEF7D6FB781401258DE8F2
:102B3000310069461548FEF7D9FA80208DE831004A
:102B400069461348FEF7D2FA02200326CDE9024077
:102B5000CDE9006569463846FEF7C8FA0420CDE99C
:102B60000005CDE9024669463846FEF7BFFA4FF444
:102B700070408DE8310069463846FEF7B7FA05B077
:102B8000F0BD000000100240000C014000100140A8
:102B900000080140114810B50F4901604FF48271DF
:102BA00041604FF40041816000210222C0E903121C
:102BB0001202C0E905121022C0E9072141628162B8
:102BC0000A21C162FEF75EFF002803D0BDE8104075
:102BD000FDF746BF10BD0000003001403C01002061
:102BE00010B586B000241848009401940294039410
:102BF000049414490594016041F61F41C0E9011491
:102C00006421C0E903148021C0E90541FFF7CEF833
:102C100008B1FDF725FF4FF48050009069460A483F
:102C2000FFF744F908B1FDF71BFF049404A9064817
:102C30000594FFF787F8002801D0FDF711FF06B0D3
:102C400010BD0000002C0140940100200C4810B57C
:102C50000A4901604FF4E1314160002181600C229A
:102C6000C160C0E904128161C161FFF7D1FC002895
:102C700003D0BDE81040FDF7F3BE10BD00380140A1
:102C8000DC0100200C4810B50A4901604FF4E13125
:102C90004160002181600C22C160C0E904128161A1
:102CA000C161FFF7B5FC002803D0BDE81040FDF777
:102CB000D7BE10BD00440040240200200C4810B5CF
:102CC0000A4901604FF4E1314160002181600C222A
:102CD000C160C0E904128161C161FFF799FC00285D
:102CE00003D0BDE81040FDF7BBBE10BD004800405A
:102CF0006C020020FEE7000010B53A4801F00EFC1F
:102D0000394B002201211046FDF792FE3749086039
:102D1000354B002201210846FDF76CFE334908605F
:102D2000314B002201210520FDF764FE2F49086088
:102D30002D4B002201210820FDF75CFE2B49086085
:102D4000294B002202210920FDF732FE27490860A5
:102D5000254B002203210A20FDF72AFE23490860A3
:102D6000FDF70CFE214908601F4B002202210620BE
:102D7000FDF71EFE1D4908601B4B002203210720A2
:102D8000FDF716FE19490860FDF7F8FD17490860C0
:102D9000154B002202210846FDF70AFE1349086080
:102DA000114B002203210846FDF702FE0F4908607F
:102DB0000D4B002204210846FDF7FAFD0B4908607F
:102DC000FDF7DCFD09490860FDF7D8FD07490860FB
:102DD0000846006880690860084600680449086081
:102DE00010BD00003C070020F72D0008180000204F
:102DF0001C000020FEE7704770B5002404F1B0000D
:102E0000C0B2002100F0CEF80021084600F0CAF858
:102E10000021102000F0C6F800250121002000F05C
:102E2000C1F86D1CEDB2842DF7D3641CE4B2082CFC
:102E3000E4D370BD10B5504C012211462046FEF778
:102E40004AFA6420FEF740F9002201212046FEF7ED
:102E500042FAC820FEF738F9012211462046FEF753
:102E60003AFAC820FEF730F90021AE2000F09AF8B7
:102E700000212E2000F096F80021084600F092F87C
:102E80000021102000F08EF80021402000F08AF888
:102E90000021B02000F086F80021812000F082F8A7
:102EA0000021FF2000F07EF80021A12000F07AF838
:102EB0000021A62000F076F80021A82000F072F88A
:102EC00000213F2000F06EF80021C82000F06AF8D1
:102ED0000021D32000F066F80021084600F062F8D7
:102EE0000021D52000F05EF80021802000F05AF883
:102EF0000021D82000F056F80021052000F052F8FB
:102F00000021D62000F04EF80021084600F04AF8D3
:102F10000021D92000F046F80021F12000F042F80D
:102F20000021DA2000F03EF80021122000F03AF8EB
:102F30000021DB2000F036F80021302000F032F8CC
:102F400000218D2000F02EF80021142000F02AF836
:102F50000021A42000F026F80021A62000F022F88D
:102F60000021AF2000F01EF8FFF746FF0021BDE86A
:102F70001040084600F002B8000C014010B50446AD
:102F800041F0B000002100F00DF8102040EA1410CC
:102F9000002100F007F804F00F00BDE81040002108
:102FA000AFF3008070B50F4C054609B1012200E077
:102FB000002202212046FEF78EF90022042120463D
:102FC000FEF789F9284600F011F801220421204675
:102FD000FEF781F92046BDE8704001220221FEF78C
:102FE0007AB90000000C01407047000001B54FF4B1
:102FF0007A73012269460248FEF7D6FD012008BD1A
:103000003C01002038B50B46009204460022802186
:1030100000F008F8002804D0606D40F020006065E2
:10302000032038BD2DE9F8431E46914688460446E4
:10303000089DFEF755F9401B351AFEF751F9074672
:1030400025480068C0F3CB30684338E0701C37D0A7
:10305000FEF746F9C01BA84203D215B1009860B331
:103060002CE02068416821F0E00141606068B0F523
:10307000827F0BD1A068B0F5004F02D0B0F5806F11
:1030800004D12068016821F040010160A06AB0F518
:10309000005F09D12068016821F4005101602068B7
:1030A000016841F400510160012084F851000020C2
:1030B00084F850000320BDE8F8830025401E0090EE
:1030C0002068816838EA010004D000214945BDD15B
:1030D0000020F0E70121F9E70C0000207047000014
:1030E0002DE9F041C0B006460F46002400254FF000
:1030F000200841208DF8000043208DF801008DF854
:1031000002608DF80380A019C4B22819C5B204EB7F
:103110000800C4B22819C5B2002016E007EB8002EF
:10312000002106E0535C2344DCB22B19DDB24B1CBA
:10313000D9B20429F6D3042101EB80016B4619446E
:1031400057F820300B60411CC8B20828E6DB8DF828
:1031500024408DF825504FF0FF332622694603485E
:10316000FFF702FC40B0BDE8F0810000DC01002068
:10317000FEF7BCB800B593B0282109A8FCF7FBFF07
:10318000142104A8FCF7F7FF0020009001900290A2
:1031900003900120099000040A9000200B90012068
:1031A0000D9002201090C10311914FF4E011129183
:1031B00009A8FEF7D7FA08B1FDF752FC0F200490DA
:1031C00002200590002006904FF4806007900020B8
:1031D0000890022104A8FEF7E9F908B1FDF740FCC8
:1031E00002200090800302906846FEF769F908B15A
:1031F000FDF736FC13B000BD02494FF000600860D7
:103200007047000008ED00E00148FEF7BEBE000078
:10321000940100200148FEF7B8BE00009401002090
:10322000F0B50268164B174C174D4FF08047984287
:1032300005D0B84203D0A04201D0A84203D122F069
:1032400070064A683243984205D0B84203D0A04283
:1032500001D0A84203D122F44074CA6822434C69C9
:1032600022F08002224302608A68C2620A68826297
:10327000984201D10969016301214161F0BD00005B
:10328000002C0140000400400008004010B5846894
:1032900042EA032224F47F440A432243826010BDA1
:1032A000826822F070020A4342F007018160704791
:1032B00010B5036A046A24F001040462846924F0EE
:1032C000F00444EA021423F00A020A438461026211
:1032D00010BD10B5036A046A24F010040462846906
:1032E00023F0A00324F4704444EA023243EA0111BB
:1032F0008261016210BD10B5406A0021C185C184A0
:10330000FFF74EF810BD01680C3151E8002F22F490
:10331000907241E80023002BF5D10168143151E887
:10332000002F22F0010241E80023002BF5D1016BB0
:10333000012909D101680C3151E8002F22F0100257
:1033400041E80023002BF5D1202180F84210002114
:103350000163704708B590F84210222901D002207D
:1033600008BD82684FF480539A4201D1016921B1AE
:10337000816A9A421BD04AB10AE00268816A5268A7
:10338000C2F308020A80816A891C08E0026972B1EE
:103390000268526802F07F020A70816A491C8162E9
:1033A000C18D491E0904090CC18503D01BE00268C8
:1033B0005268F1E70168CA6822F02002CA60016819
:1033C000CA6822F48072CA6001684A6922F0010268
:1033D0004A61202180F8421000214163026B012ADA
:1033E00003D0FFF7DBF9002008BD016301680C3151
:1033F00051E8002F22F0100241E80023002BF5D104
:1034000001680A68D20602D50A6849680091818D70
:10341000FEF7C5FFE7E7000070B5044600680169E4
:10342000E26821F44051114301612169A068084319
:10343000616908432168CA6841F20C639A430243F8
:10344000CA6020684169A26921F440711143416159
:103450001E492068884202D1FEF74EF901E0FEF7CE
:103460003BF900EBC00101EB0012606864218000B1
:10347000B2FBF0F3B3FBF1F36FF018067343B2FB4A
:10348000F0F5B2FBF0F605EB8305322303EB0515EF
:10349000B5FBF1F5B6FBF1F605F0F00505EB061509
:1034A000B2FBF0F6B2FBF0F0B0FBF1F06FF01802F7
:1034B000504306EB800003EB0010B0FBF1F02168F5
:1034C00000F00F002844886070BD00000038014003
:1034D00081628285C28500214164222180F84210E8
:1034E000016921B10168CA6842F48072CA6001684A
:1034F0004A6942F001024A610068C16841F0200156
:10350000C160002070472DE9F041984617460E46ED
:103510000446069D27E0681C25D02DB1FDF7E0FE8E
:10352000A0EB0800A8421ED920680C3050E8001F0C
:1035300021F4D07140E80012002AF5D1206814303F
:1035400050E8001F21F0010140E80012002AF5D1E7
:10355000202084F8410084F84200002084F84000D4
:103560000320BDE8F0812068006836EA000004D03E
:103570000020B842CFD00020F3E70120F9E7000097
:103580000148FEF70FBF0000DC010020FEE700004D
:103590000FB4084B10B504A902AA039800F000F973
:1035A000044602A9002000F092FC204610BC5DF801
:1035B00014FB0000CF3E000837B514460846064B02
:1035C0006A46214600F0ECF804466946002000F007
:1035D0007EFC20463EBD0000CF3E00080907090ED4
:1035E000002804DB00F1E02080F80014704700F0B0
:1035F0000F0000F1E02080F8141D704702E008C8B9
:10360000121F08C1002AFAD170477047002001E05C
:1036100001C1121F002AFBD1704700002DE9FF5F96
:1036200082B00021DDE90430020DDDF840B0034333
:1036300018D044F61050A2F2FF32424315141198EC
:1036400001281FD0A5EB0B00401C5FEA000A4FF0D9
:1036500000064E4FDFF83891B046504615D5CAF1F6
:10366000000413E0119801244AA3012801D16FEA54
:103670000B010298119AC0E90031C0E9024206B07C
:10368000BDE8F09FCBF10000DFE704460021404A8F
:10369000491842EB0450CDE9001012E0E00707D0D2
:1036A00032463B4640464946FCF7CFFD80468946B8
:1036B00032463B4610461946FCF7C7FD06460F4604
:1036C0006410002CEAD1DDE90401DDE90023BAF140
:1036D000000F06DAFCF7B9FD42464B46FCF7B5FD94
:1036E00005E0FCF724FE42464B46FCF720FE04466C
:1036F0000E460022284BFDF789F803D84FF0FF3023
:10370000014607E00022254B20463146FCF7BFFF6B
:10371000FDF764F8102409E0002C0ADB0A220023DC
:10372000FCF7F0FE039B30321A55641E50EA01028A
:10373000F2D1641C039AC4F111031444119A012AB2
:1037400003D0012208430DD10AE0084304D0002031
:103750004FF0110B119072E7A3EB0B056D1E0DE0FE
:103760005B4504DD4FF0000205F1010504E003DADA
:103770004FF00002A5F10105002AECD00298119942
:10378000C0E90231C0E9004579E7000000001440BB
:103790000000F03F300000000000F0430000E03F78
:1037A0002DE9FF4F95B09B468946064600250FE25E
:1037B000252877D100242746F84A0121059400E006
:1037C000044316F8013F203B01FA03F01042F7D101
:1037D00030782A2811D06FF02F033078A0F1300212
:1037E000092A16D8059A44F0020402EB820203EB80
:1037F00042021044761C0590EFE759F8042B05921D
:10380000002A03DA504244F40054059044F00204C4
:10381000761C30782E2816D116F8010F44F00404D7
:103820002A280DD06FF02F023078A0F13003092B39
:1038300009D807EB870302EB4303C718761CF3E7AD
:1038400059F8047B761C30786C280FD006DC4C28A5
:1038500017D068280DD06A2814D104E0742810D03D
:103860007A280FD10DE044F400140AE044F48014E7
:1038700001E044F440147278824202D104F58014CD
:10388000761C761C307866280BD013DC582877D04D
:1038900009DC002875D04528F6D04628F4D0472802
:1038A0001AD19DE118E0632835D0642879D06528C5
:1038B00012D195E1702873D008DC6728F1D069280F
:1038C0006FD06E280DD06F2806D1B5E073282CD0AC
:1038D000752875D0782874D05A46179990476D1C72
:1038E00075E1C4F30250022809D003280DD0D9F89D
:1038F000001004280DD00D6009F1040967E1D9F822
:103900000010EA17C1E90052F6E7D9F800100D805F
:10391000F2E70D70F0E719F8041B8DF80010002095
:103920008DF80100EA46012003E059F804AB4FF09E
:10393000FF3061074FF0000102D40DE008F10101F2
:103940008846B9420FDA8045F8DB1AF808100029DA
:10395000F4D108E008F1010188468142FADB1AF847
:1039600008100029F6D105985B46A0EB0807214610
:103970003846179A00F094FA284400EB080507E04F
:103980004DE029E10DE01AF8010B5A4617999047CE
:10399000B8F10108F7D25B4621463846179A13E181
:1039A00042E00A220092C4F302524FF0000A022AB7
:1039B00008D059F804CB032A4FEAEC710AD00DE085
:1039C00029E02AE009F1070121F00702F2E802C12B
:1039D000914609E00FFA8CFC4FEAEC71042A03D1FE
:1039E0004FFA8CFC4FEAEC71002907DA0A460021F5
:1039F000DCF1000C61EB02012D2202E0220504D56E
:103A00002B228DF80420012203E0E20701D02022BE
:103A1000F7E7904659E00A2102E010220DE010215C
:103A20004FF0000A00910BE010224FF0000A44F022
:103A300004040827009203E008224FF0000A0092D5
:103A4000C4F30252022A05D059F804CB0021032AFC
:103A500008D009E009F1070121F00702F2E802C1EC
:103A6000914605E01FFA8CFC042A01D10CF0FF0CF2
:103A70004FF00008220728D5702806D0009B83F05D
:103A8000100353EA0A0305D00EE040228DF804200B
:103A9000012208E05CEA010206D030228DF8042001
:103AA0008DF8050002229046009B83F0080353EA3C
:103AB0000A030AD15CEA010201D1620705D530226E
:103AC0008DF804204FF001087F1E582804D034A040
:103AD00003900EA802900DE036A0F9E75346604629
:103AE000009AFCF70FFD84460398825C0298401E02
:103AF000029002705CEA0100F0D1029806A9081A4F
:103B000000F1200A600702D524F4803400E0012788
:103B1000574502DDA7EB0A0000E0002000EB0A0198
:103B2000009005984144401A0590E00306D45B4696
:103B30002146179A059800F0B3F90544002706E0DE
:103B400001A85A46C05D179990476D1C7F1C4745D8
:103B5000F6DBE0030CD55B462146179A059800F08A
:103B60009FF9054404E030205A46179990476D1C90
:103B70000099481E00900029F5DC08E0029802999F
:103B80005A460078491C0291179990476D1CBAF16A
:103B90000001AAF1010AF1DC65E100000928010039
:103BA00030313233343536373839616263646566B3
:103BB0000000000030313233343536373839414275
:103BC000434445460000000000F058F90544761CC7
:103BD000307800287FF4ECAD19B02846BDE8F08FAE
:103BE000620700D4062709F1070222F0070CFCE85F
:103BF0000223E14603F000485FEA080C02D00FF20E
:103C0000702C0DE05FEA045C02D50FF2682C07E02F
:103C10005FEAC47C02D00FF2602C01E0AFF2700CBE
:103C20004FF0FF3823F00043CDF850C065280CD08A
:103C300006DC452809D046281DD047283DD13DE067
:103C4000662818D067287ED138E00021112F01DBCB
:103C5000112000E0781CCDE9000106A90EA8FFF7AD
:103C6000DDFCDDE90F010E9A03910021009207F1BE
:103C7000010A04914DE04FF000400097CDE901109A
:103C800006A90EA8FFF7CAFCDDE90F0203920E9BFE
:103C900011990022DDF80CA00093049211B9791C4F
:103CA00000EB010AB7EB0A0004D4C0F1FF3007F1C2
:103CB000010A0490AAEB0700019044E0012F00DA0A
:103CC00001270021112F01DD112000E03846CDE948
:103CD000000106A90EA8FFF7A1FCDDE90F010E9A6D
:103CE0000391002104910092BA4621070CD4039954
:103CF000514500DA8A46BAF1010F05DD009AAAF1B2
:103D00000101515C302908D0B84202DA10F1040FE9
:103D100006DA0121CDE9011015E0AAF10101E9E778
:103D2000002805DC049901440491AAEB000102E09B
:103D3000411C514500DD8A460499401A401C0190FF
:103D40004FF000400290200704D40198504501DB59
:103D5000CDF8048000208DF84F0002980DF14F0738
:103D6000B0F1004F25D02B200E9002984FF00208A2
:103D700000280CDA404202902D200E9007E00A2124
:103D80000298FCF7A9FB3031029007F8011DB8F149
:103D90000001A8F10108F2DC02980028EFD1791E99
:103DA0000E980870307800F0200040F0450007F8C9
:103DB000020D12A8C01B00F107081498007800B18A
:103DC000012000EB0A01019801EBE07105984144E4
:103DD000401A401E0590E00306D45B462146179A20
:103DE000059800F05DF805441498007818B15A461B
:103DF000179990476D1CE00324D55B462146179A1E
:103E0000059800F04DF805441CE00498002807DBF5
:103E1000DDE90301884203DD0098405C179901E069
:103E2000179930205A469047049805F10105401C27
:103E300004900198401E019004D12E205A461799F3
:103E400090476D1CBAF10001AAF1010ADDDC05E022
:103E500017F8010B5A46179990476D1CB8F10001ED
:103E6000A8F10108F4DC5B462146179A0598ABE6F9
:103E70002D0000002B000000200000002DE9F04183
:103E8000044600251E461746880404D405E039463A
:103E90002020B0476D1C641EF9D52846BDE8F0818E
:103EA0002DE9F041044600251E469046C80301D581
:103EB000302700E02027880404D505E04146384635
:103EC000B0476D1C641EF9D52846BDE8F0810A682C
:103ED000531C0B60107070470FB400B5A1B023AA3B
:103EE00068462299FFF768FB6846FCF74FF982B2F3
:103EF0004FF47A7369460348FEF736FD21B05DF84A
:103F000014FB0000DC0100202DE9F04F8DB00446C9
:103F10009C496068FCF793F90190FCF7A3FA002232
:103F2000994BCDE90201FCF702FA0746FCF77BFA50
:103F300045B294492068FCF782F90190FCF792FAA7
:103F400007460022904BFCF7F2F9CDE90201FCF79D
:103F50006AFA46B28B49A068FCF771F90190FCF748
:103F600081FA0022884BCDE90201FCF7E0F907460F
:103F7000FCF759FA4FFA80F98249E068FCF75FF9DB
:103F80000190FCF76FFA00227F4BCDE90201FCF7AC
:103F9000CEF90746FCF747FA4FFA80FA7B4800F063
:103FA000D7FA7B49794800F048FC00F0A9FA00F004
:103FB00029F90A280ADD7748082120230222CDE9C1
:103FC00000101146714800F0F1FB09E07248082129
:103FD00020230222CDE9001011466C4800F0E6FBD8
:103FE0006EA104A8FFF7D4FA04A8FCF7CFF8C0F13B
:103FF0002200C7B204AB0A223946644800F0C8FB6D
:1040000000F000F90A281CDA00F0DAF802280AD1D8
:1040100064480C2117230022CDE9001035215B48AC
:1040200000F0C4FB1DE000F0CBF8D0B95E480C21D5
:1040300017230022CDE900103521544800F0B6FBCB
:104040000FE05AA104A8FFF7A3FA04A8FCF79EF812
:10405000C0F13B00C7B204AB0A2239464B4800F01E
:1040600097FB2069FCF7FEF907463A460B4651A13B
:1040700004A8FFF78DFA04AB40222C21434800F03E
:1040800087FB00F0C5F883465846FCF7EBF9074676
:104090003A460B4647A104A8FFF77AFA04AB0A2276
:1040A00055213A4800F074FB0F20122328222021CA
:1040B0000090364800F055FA0F2012232822642180
:1040C0000090324800F04DFA0523282230212F4875
:1040D00000F09FFA052328220C212C4800F099FAC1
:1040E000052338222021294800F05AFB05231422F9
:1040F0002021264800F054FB052328227421234860
:1041000000F087FA052328225021204800F081FA88
:104110000523382264211D4800F042FB05231422A8
:1041200064211A4800F03CFBC6F12800C2B2C5F178
:104130001B00C1B20A23154800F06BFAC6F1230038
:10414000C2B2C5F12000C1B20A23104800F028FB1A
:104150000AF12800C2B209F15F00C1B20A230B487C
:1041600000F057FA0AF12300C2B209F16400C1B2AB
:104170000A23064800F014FB044800F055FB0DB07C
:10418000BDE8F08F00004842000004403C070020DA
:104190001E550008B6540008965400084D6F64651B
:1041A0003A000000D6540008FA5400084572726FB5
:1041B000720000004261743A252E316656000000FC
:1041C00010B50D4948680021FCF77CF901D10020A9
:1041D00010BD094948680949FCF774F901D102206A
:1041E000F6E7054948680649FCF76CF901D101205A
:1041F000EEE700BFECE70000C407002000004842E3
:104200000000C8420148007870470000FC00002010
:104210000148006870470000C407002010B502483C
:1042200000F012F910BD00002C0300209AB0FDF739
:1042300065F8FEF79FFFFEF745FCFEF7F1FBFEF782
:10424000A9FCFEF703FDFEF71DFDFEF7C9FCFEF716
:1042500035FDFEF7EFFDFEF7CFFDFFF7DFFFFEF7C1
:10426000D3FB41480690FEF747FD4048FCF7FCFBB6
:104270003F48FDF7EFFD3FA0FFF72EFE42A0FFF7FE
:104280002BFE70E0062217A9424800F0E6F84FF036
:10429000000A2BE03548FCF72DFE32213348FCF7AD
:1042A0008BFD3248FCF7CAFC12A941F82A00BAF18A
:1042B000040F19DA51F82A00FCF7A8F80646002284
:1042C000354BFBF7C2FF04460022344BFBF7BDFF22
:1042D00080460022324BFCF72AF8CDE90001FCF7BA
:1042E000D4F80AA941F82A000AF1010ABAF1050F27
:1042F000D0DB1E48FCF75EFE0C9802900D980390F0
:104300000A98049018480B99FBF799FF05909DF8BF
:104310005D00012802D11448069005E09DF85D007B
:10432000022801D1002006900020079008900990F3
:104330001698FCF76BF880461A4A1B4BFBF785FF73
:1043400006460022164BFBF7F2FF0446FCF79DF8E9
:104350000E900AA8FFF7D8FD02A90120FEF7C0FEC3
:104360001420FCF7B1FE8DE70000C8420C010020CC
:104370009401002041542B424D4143464C595F4526
:1043800044555F56320D0A0041542B434630310DDF
:104390000A0000002C0300200000F03F00005940FC
:1043A0000000B040C3F5285C8FC21A40F0B50B3056
:1043B000154D20F007010024144A0FE003688B42DA
:1043C0000BD38B4205D95E1A43184768C3E90067CF
:1043D00000E04368136002C004E0021D106800287A
:1043E000ECD12046002802D1286808B10020F0BD99
:1043F000064A07481060074A121A22F00702C0E96D
:10440000002401202860D7E70801002004010020D3
:10441000EC0B0020E80D00200020014908707047D7
:10442000FC00002000B500F003F8C0F5806000BD7E
:10443000D0E900218A4201D3501A70478368591A83
:104440001144081A0C38704700F10C0101604160FA
:1044500000F20D418160002070472DE9F0411446C3
:104460000E460546FFF7E4FFA04200DB2046041E8F
:104470001BDDD5E90110471AA74202DB2246304670
:1044800007E03A463046FBF75DFEE21BF01905F106
:104490000C01FBF757FE686820446860A9688842F1
:1044A00002D3A0F2014068602046BDE8F0812DE90A
:1044B000F04115460F460446FFF7B4FFA84202DA62
:1044C0000020BDE8F081A16820680E1AAE4202DB30
:1044D0002A46394607E032463946FBF733FEAA1B27
:1044E000B91904F10C00FBF72DFE20682844206068
:1044F000A168884202D3A0F2014020602846E0E78C
:1045000005480078401C0449087008460078C8280F
:1045100001DDC82008707047FC00002010B504467B
:10452000084B094A094900F0CDF9204600F0B2FDD8
:104530000021204600F0BEFD2046BDE8104000F0FE
:1045400007B800001954000831510008AC5B00089E
:1045500001680A7C90F83C10806B5143C900FBF75E
:104560000ABE2DE9F8431C4680461019401CC0B213
:1045700000900819401CC3B21546101BC2B20E466B
:10458000081BC1B2089F404600F036F9002806D04B
:1045900023462A4631464046009700F049FABDE8D6
:1045A000F8832DE9F041044690F866001F46154651
:1045B0000E4630B1012809D002280CD0032815D1AD
:1045C0000FE0616D20468847284408E0616D204671
:1045D0008847301A09E0616D20468847281AC5B21D
:1045E00004E0616D204688473044C6B2284684F80E
:1045F0005C6084F85D0039460025204600F0E8FB49
:10460000010003D0204600F017FBC5B22846BDE8E4
:10461000F08138B50024009400F002F838BD0000A5
:104620003FB581B0044690F88000089900283AD040
:104630009DF81000002836D0012811D9022902D097
:10464000032907D00CE09DF80820101A401C8DF8B3
:10465000080005E09DF80C20101A401C8DF80C0095
:1046600011F0010521D094F845109DF80800814211
:1046700019D894F84610814215D994F8483094F826
:10468000472004A90DF10C0000F0B4F900280AD06D
:104690000095606B9DF810309DF80C2085689DF8A2
:1046A00008102046A84705B030BD94F847109DF883
:1046B0000C008142F7D894F848108142F3D994F85D
:1046C000463094F8452004A902A8DDE72DE9FF4F04
:1046D00081B090F88670DDF838901D468846064611
:1046E0009FB10020834603984146401CC0B2009011
:1046F00008EB0500C3B23046039A00F07DF80028AD
:104700002BD001244FF0000A23E00120EAE700BF8C
:1047100099F80000204202D086F8867004E096F8EE
:10472000850048B986F886B00123CDF800A041463F
:104730003046039AFFF774FF08F1010000F0FF080C
:10474000600010F0FF0402D1012409F101096D1E7F
:10475000EDB2002DDCD186F8867005B0BDE8F08F93
:1047600008B590F84730934210D890F848309342FB
:104770000CD990F845308B4208D890F846308B42DF
:1047800004D9002300930123FFF74AFF08BD00006E
:1047900030B4024C446030BC00F0ECB92151000848
:1047A00038B501240094FFF73BFF38BD2DE9F84FE1
:1047B0008246DDE90A57D81DC0F3C4085019C0B2BB
:1047C0001C4600900819C3B216468946504600F0B0
:1047D00013F800280ED00BE02346324649465046D7
:1047E0000097FFF773FF761C6D1E4744F6B2EDB2DB
:1047F000002DF1D1BDE8F88F70B50D461E46044678
:1048000090F8481090F84700049B00F03EFB002809
:1048100009D094F8461094F8450033462A46BDE87E
:10482000704000F032BB70BD10B5044600F0BDFB17
:104830002046BDE8104000F035BC10B50446006DC0
:10484000884209D004F16800216500F079FB204618
:10485000BDE8104000F052B810BD000001494165AC
:1048600070470000EB4B0008002180F8491080F8E9
:104870004B10FF2180F84A1080F84C10416B4968BA
:10488000084770B504460025049825652363A16395
:1048900084F83C2084F83D5084F8635084F88550B7
:1048A000012184F8861084F887106063016820462F
:1048B00088472046FFF7D8FF2046FFF7CFFF84F850
:1048C000665070BD7CB50C46009313460546084AF9
:1048D000084900F0F7FB01A800F02CFB0146064B4D
:1048E00000949DF804202846FFF7CBFF7CBD000014
:1048F0009B51000811530008A54E000810B5016D2A
:1049000000291AD090F9753080F8823090F976201D
:1049100080F8832090F8811000290ED001290DD055
:1049200090F9724090F974100C449C4201DD80F8BB
:1049300082408A4201DD80F8831010BD90F9771023
:104940008B4201DA80F8821090F97810F1E72BB1F0
:10495000012B05D0022B06D0104402E0084400E0F1
:10496000801AC0B27047401AFBE72BB1012B05D06B
:10497000022B06D0401A02E0104400E00844C0B206
:104980007047801AFBE738B5044690F84C00009059
:1049900094F84A3094F84B2094F849102046FFF7D9
:1049A0002BFF18B3012084F8800094F8451094F888
:1049B0004900814201D284F8450094F8461094F8E9
:1049C0004A00814201D984F8460094F8471094F8CF
:1049D0004B00814201D284F8470094F8481094F8C3
:1049E0004C00814201D984F8480038BD002084F889
:1049F000800038BD30B504780D782544EDB2AC4266
:104A000005D99C4202D25D1EEDB200E014469C42E4
:104A100001D2954201D8002030BD944200D2144604
:104A20009D4200D91D460470281B0870012030BD2E
:104A30002DE9FF4FC3F1010083B046B258429146C1
:104A4000DDF840A040008B4601271C46CDE9009AC6
:104A500000254FFA80F85B462246294615E0002ED5
:104A600008DB08F102004FFA80F8641E06EB08002C
:104A7000E4B246B26D1CBF1C7FB2CDE9009AEDB224
:104A8000F01946B25B4622462946039800F005F825
:104A9000A542E4D307B0BDE8F08F2DE9FF4F83B006
:104AA0000E46DDE9108703EB060002901546A8EBE1
:104AB0000600019003EB05001C46F907A8EB050B67
:104AC00000900DD002980BF0FF02C1B20398FFF7DF
:104AD00047FE0198C2B20098C1B20398FFF740FEAA
:104AE000B907A4EB060AA4EB05090DD50BF0FF02EC
:104AF0000AF0FF010398FFF733FE019809F0FF0168
:104B0000C2B20398FFF72CFE08EB0504390708EB47
:104B100006050BD50298E2B2C1B20398FFF720FE5A
:104B20000098EAB2C1B20398FFF71AFE78070ED5D3
:104B3000E2B20AF0FF010398FFF712FE039807B0F4
:104B4000EAB209F0FF01BDE8F04FFFF709BE07B078
:104B5000BDE8F08F38B590F84050049C0094521B8B
:104B6000046BD2B2A04738BD38B5049C0094FFF75F
:104B7000F1FF38BD2DE9F0471C46914688460646B0
:104B800000F067FC00254FF6FF7772682178304609
:104B900090470346B84225D0641CA3F57F40FE38F9
:104BA000F3D04A4641463046FFF7FBFC96F86610C4
:104BB00031B1012907D0022908D003290FD10AE019
:104BC00008EB000104E009EB000106E0A8EB00019E
:104BD00001F0FF0803E0A9EB000101F0FF09284400
:104BE000C5B2D2E72846BDE8F0870020704710B56F
:104BF0000C4600F006F80122641EA240801A40B262
:104C000010BD30B50568847A2A78E2406318DBB2BB
:104C1000082B09D36D1C05602D78C4F10804A5404C
:104C20001543083BEAB2DBB201248C40641E1440F9
:104C30008372204630BD00002DE9F843054600F19F
:104C4000580400F008F915F9616F2046697BFFF7F9
:104C5000CEFF8146A97B2046FFF7C9FF0746E97BC7
:104C60002046613DFFF7C3FF804694F90800002805
:104C700055DDF019404247B2A37B20793A464946B8
:104C8000FFF765FE2071A37B3A4660794946FFF73E
:104C90006CFE60712179A77B02460B4637B1012F6C
:104CA00009D0022F3ED0032F0DD143E0277A3044A4
:104CB0003B44DBB206E0891B491C277A5B1CC9B266
:104CC000DBB23844C0B200902846FFF795FD30B300
:104CD0000020A07184F8070095F86A102046FFF7BD
:104CE00090FF814695F86B102046FFF78AFF074634
:104CF00000224946284600F025F801223946284678
:104D000000F020F801212046FFF77BFF0028EFD1BB
:104D100094F90700B042DFDB207B85F8860040462F
:104D2000BDE8F883277A5B1CC91B491CC9B2DBB2FA
:104D3000921B03E0277A3344DBB2D21B521CD2B25F
:104D4000401CBFE72DE9F74F84B00D46049C94F852
:104D50005E7094F85F805834207AC01BC6B201960A
:104D6000B54200D201954FFA88F279B2207994F8D1
:104D700005B0A37B92468946FFF7E9FD0290A37B2D
:104D8000524649465846FFF7F0FD0246069808B1DC
:104D9000217B02E0E07A50B9617B049880F88610AC
:104DA000A07B0090DDE901310498FFF739FCB542A2
:104DB00007D3A81BC5B208F10100002700F0FF08C7
:104DC000CAE77819A07184F8078007B0BDE8F08FB2
:104DD00070B50D460146006D1730FF2D10D8612DBE
:104DE00002D3B1F87C1003E0412D02D3B1F87A1060
:104DF0000844417819B30278AA42F9D1801C70BDE9
:104E0000B1F87E100C1826460021304600F019F843
:104E100004440221304600F014F8361DA842F3D3B2
:104E20004FF6FF72207802EA00216078084306D02E
:104E3000A84201D1E01C70BDA0780444F2E7002034
:104E400070BD08444FF6FF720178407802EA0121F4
:104E5000084480B2704730B5054600F158048165BA
:104E60000020A07215F86C1F2046FFF7CAFE2072C2
:104E700069782046FFF7C5FE6072A87E207310B1E6
:104E80000020607330BD0120FBE78A4205D28342D7
:104E900001D89A4203D9012070478342F9D80020F3
:104EA00070470000F0B502F007060124B440002569
:104EB00090F886E0E7B2DDF814C02C46BEF1010F91
:104EC00001D83D4600D03C4622F007070268BCF1FD
:104ED000000F127C02FB07F2876B3A44114409D1A0
:104EE00008785B1E2843604001F8010B13F0FF03B4
:104EF000F6D1F0BD0A78761C2A436240A3F1010383
:104F00000A7016F00706DBB206D06A06150E6206B6
:104F1000140E002BEED1F0BD90F83E20114490F815
:104F20008620012A03D800BF4FF00105F1D04FF0D1
:104F30000104EEE70821017000487047E4070020F3
:104F400070B5054608782870487868708878A87029
:104F5000C878E870087928714879687188790C46B2
:104F6000A871E079E871207A2872607A6872A07A74
:104F7000A872E07AE872207B2873607B6873A07B5C
:104F8000A873E07BE873207C287411212046FFF78A
:104F900058FF688213212046FFF753FFA88215218E
:104FA0002046FFF74EFFE88270BD2DE9F843064624
:104FB00090F83C7090F83D50006800244FF6FF7860
:104FC00090F81190316830462A460B7CB16B04FB97
:104FD00003FC1FFA8CFC08EACC0C61440091002110
:104FE00000F049F8641C6D1CE4B2EDB2BC4201D281
:104FF0004D45E7D3BDE8F88370B590F83C200368D1
:10500000D10080F83F10197C202900D31F21C9004E
:1050100080F83E1090F83D40E106090E80F84010FF
:105020005D7CA618AE4201D92A1BD2B280F841108D
:1050300001EBC20180F84210F02180F84310998AF8
:10504000F02901D880F84310997D80F8441070BD94
:10505000FFF7D2BF002180F8451090F8431080F888
:10506000461090F8411080F8471090F8421080F8F0
:105070004810FFF788BC1CB58DF805108DF8062088
:10508000049C8DF804300094012284686B460F2143
:10509000A0471CBD30B484680023A44630BC1A4627
:1050A0000A21604730B484680023A44630BC1A4605
:1050B0001021604730B484680023A4460A4630BCFF
:1050C0000B2160472DE9F04115460E460446069F28
:1050D00000F00AF86761A660C4E903532046BDE802
:1050E000F04100F015B80000002140F8081B074A05
:1050F000026042608260C260C1768177C1770161DF
:10510000FF21017780F82110704700001554000836
:1051100030B484680023A44630BC1A460921604795
:10512000080001D00A2801D14FF6FF707047000037
:1051300010B510481C46182913D004DC142914D0CB
:10514000172904D105E0192911D0202907D0002002
:1051500010BDC82321460848FCF726FD05E00221C2
:1051600001E0002204E0FCF7B6F8012010BD0122A6
:105170000421F8E7000C01403C01002013B5012296
:10518000046901AB1721A0471CBD30B4046900239A
:10519000A4460A4630BC202160472DE9F04105466F
:1051A000A1F114001F4616460C4606281CD2DFE863
:1051B00000F01203030E121200212846FFF7E5FF4C
:1051C00031462846FFF7DAFF0120BDE8F0810121D2
:1051D0002846FFF7DAFF3B46324621462846D5F8F7
:1051E00010C0BDE8F04160470020EEE730B4C4686D
:1051F0000023A44630BC1A461921604730B4C46865
:105200000023A4460A4630BC1621604730B4C46867
:105210000023A4460A4630BC1521604730B4C46858
:105220001346A4460A4630BC17216047F8B50C4621
:105230004FEA000514F8011B182924D00EDC1529AB
:1052400019D0162917D0172923D120788DF80000FE
:105250006A4601212846FFF7E1FF0AE0192912D02A
:10526000FE2916D122788DF800202921284600F049
:10527000EAF8641CDEE722788DF80020EE6800234F
:105280002846B047F5E70023EE681A462846B0479F
:10529000D0E7F8BD30B4C4680023A44630BC1A4639
:1052A0001821604770B50023456904461A46282135
:1052B000A8470023E5681A4614212046A847012282
:1052C0004B21204600F0BFF82068292102792046B2
:1052D00000F0B9F800224B21204600F0B4F8206815
:1052E00029210279204600F0AEF801224B21204608
:1052F00000F0A9F82068292142792046BDE87040D5
:1053000000F0A1B80160897C80F82210704700008D
:1053100070B50C46054600F019F890B9092C0BD071
:105320000A2C01D0002070BD2846FFF7BBFF0649BC
:105330002846FFF77BFF04E003492846E431FFF7E6
:10534000E1FF012070BD0000D05B00082DE9F041B5
:105350001E46144605460B2908D00D290ED00E29ED
:105360001ED00F2927D00020BDE8F0811AB12849AE
:10537000FFF75CFF4AE02649491FF9E74AB1244993
:105380000C31FFF753FF286890F8130085F82200CE
:105390003CE01F49491DFFF749FF2868807CF5E77D
:1053A000FFF778FF81212846FFF730FF2146284686
:1053B000FFF724FF27E0FFF76DFF707995F82210C3
:1053C00001EBC000C7B240212846FFF71FFF1020A5
:1053D00040EA17112846FFF719FF07F00F0128468A
:1053E000FFF70CFFB07940F0B0012846FFF706FF49
:1053F00030793268C006010E2846FFF70FFF641EA1
:1054000014F0FF04F4D12846FFF7F0FE0120ABE7CB
:10541000BD5B00080020704710B529290ED02A294D
:1054200003D02B290DD100BF0BE000204FF4A07159
:1054300000BF401C80B28842FAD302E00120FBF793
:1054400043FE012010BD30B444690023A44630BCA3
:105450006047002180F8271070470102020304050D
:10546000060708090A0B0C0D0E0F101001020203AB
:105470000405060708090A0B0C0D0E0F101000009A
:1054800000000000000001020304060708090000F4
:1054900000000102030400000000FE0F0400460C9F
:1054A000050048420500F0510500405405004054F5
:1054B00005004054050000000000FE0F0000462CCF
:1054C000040048420200F081010040800100404099
:1054D00002004020040010000220007EFF070201AD
:1054E000040200E03FFF2720202020242020E4E3C6
:1054F0003F2400002AA024F1174910000220F07F69
:10550000FF070001C41F004010FFC71F2000002438
:10551000F07FE4134024904F2A9048F1976FBF002A
:1055200002020303030404050700FF06FF0600014F
:1055300012022F0670200500BD012106B1B1192904
:1055400022075BB7495600230A2DB1AB86AA86AA6B
:1055500000240A2DB15B35D820A505250934B1C931
:1055600020F6060126092CB18B295631052705990D
:10557000B719280772B153CD00290872B189A95211
:10558000002A076BB149D56A2B0A2DB1CD280E9997
:1055900051042C075BAF5325002D060CB519012EC5
:1055A0000652B119012F0724B307B10D300873B1AA
:1055B000AB5C1500310773B14BB235320A34B153CD
:1055C0003183588E00330B34B11919248D64520085
:1055D000340A34B18DAA1A318304350A34B1191A48
:1055E0006C249302360A34B15319AC289302370B5A
:1055F00034B11919C40C620611380A34B15331A9F7
:10560000289302390A34B15351A60D92023A076A1F
:10561000B11971043B0833AFB3912A013C086BB157
:105620004D35C8203D081CB319198D003E096BB1DA
:10563000C9208354023F0973B16BA60C13004009C3
:1056400034B15351DD4801410934B153518E29031E
:10565000420A34B15971A4284702430B34B1535163
:10566000830C625200440934B159D1391200450B00
:1056700034B1191AAC0C321801460B34B1191AACFA
:105680000C32C800470A34B153518334D300480860
:1056900034B189724C33490773B159B1354A0B346F
:1056A000B107196490814C0A4B0A34B1892A49998F
:1056B000CA004C0C34B1C920830C32C860044D09B7
:1056C00034B189E38866004E0834B1896BA9334F41
:1056D0000934B153D1991400500A34B159518E9400
:1056E0004106510A3CAF53D15C49A300520934B181
:1056F00059518ED40C530A34B15331655426055494
:105700000773B159B10B550834B1899E4901560947
:1057100034B189CE241500570934B189E6386200C6
:10572000580A34B1893249156500590873B1495690
:1057300059015A0A34B11919C43618015B0773B1FB
:1057400019B1395C0924B3C928A38C025D0773B170
:1057500099CD115E0553B96B5F060CB11901600656
:1057600052B98901610824B11B51A902620B34B1FD
:10577000C9208315E54800630723B19B1908640A13
:1057800034B10719A411651A650924B1536964A0DD
:1057900000660934B1ADCA99410467092CAF1B31C9
:1057A000A98C06680A34B1C9208315CD0069087335
:1057B000B1CB4856036A097BAFCDB05415006B0BD3
:1057C00034B1C9208394642A036C0773B1915D03DB
:1057D0006D0824B1496948196E0724B159D10C6F7D
:1057E0000824B15351260570092CAF59518E9401EC
:1057F00071092CAF1B51A60D02720824B1595183B7
:105800000C730824B11B1A0D05740A34B1CB20CED9
:105810000C3212750724B189661A760763B14956AE
:1058200005770724B189721C780824B18949AA1820
:1058300079092CAF89329525007A0824B119B11C59
:10584000017B0873B14D49D6207C05B1B1397D0A81
:1058500073B1C920AA9822007E0714B94B2A01A06F
:105860000500BD01A106B1B14923A20934AF8D23C2
:10587000356702A3082CB155715602A40B2DB1C98E
:1058800020CD14570601A50973B149AA5A3101A6C2
:1058900006A9B15102A7087BAF9BAA920BA8064BA1
:1058A000BB4901A90D3DAF5B19A83455D2202D008D
:1058B000AA061BB75B49AB071DB38BB201AC07143B
:1058C000B3191904AD054BB519AE0C3DAF5B198C7E
:1058D00034A7066901AF060CBB1901B0065BB7EB34
:1058E00002B10B35B1CD280E99511C02B20662B53A
:1058F0005106B30662B51969B40652B95300B5082A
:105900002CAF89E64819B60834B11B6AF503B7060F
:1059100052B51901B80652AF5300B90763B54B32FF
:105920000DBA061BB7EB02BB081DB389A54C00BC22
:105930000C3CAFC920830C62541B04BD0D3CAFC9A5
:1059400020830C9206310301BE0B3CAF911A441523
:10595000D50601BF0973B1CB30C55401C00934B1BC
:1059600053518E2903C10934B153518E2903C20901
:1059700034B153518E2903C30934B153518E2903D5
:10598000C40A34B18949C5316500C50934B1932AC7
:105990008E2903C60934B11BA91AAA25C70B3CAF2F
:1059A0005351830C629211C80B34B1191AAC0C32EA
:1059B0001801C90B34B1191AAC0C321801CA0B34D6
:1059C000B1191AAC0C321801CB0B34B1191AAC0C4A
:1059D000321801CC0773B159B135CD0773B159B144
:1059E00035CE0773B159B135CF0773B159B135D041
:1059F0000934B19969758D04D10834B14973A9335B
:105A0000D20934B153D1991400D30934B153D19987
:105A10001400D40934B153D1991400D50934B153C9
:105A2000D1991400D60A34B1894945332900D708E1
:105A300024B18949AA18D80934B11BE9484702D9C9
:105A40000834B1899E4901DA0834B1899E4901DBE5
:105A50000834B1899E4901DC0A34B18919453329DA
:105A600000DD0873B149565901DE0B34B1C960C578
:105A70009132C800DF0934B15351955602E00A341F
:105A8000B1CB288EA85401E10934B1ADC1884A15C3
:105A9000E20934B1ADD2884A15E30A34B14B2A8EFB
:105AA000A85401E40934B1ABE1884A15E50934B1E1
:105AB000937244A50AE60824B11B69C501E7086B87
:105AC000AF9B19A804E80B34B1CB28AA343250009C
:105AD000E90A34B1AD814A230305EA0B34B18B29BD
